{"abi":[{"type":"constructor","inputs":[{"name":"_addrs","type":"address[]","internalType":"address[]"},{"name":"_percentages","type":"uint256[]","internalType":"uint256[]"}],"stateMutability":"nonpayable"},{"type":"receive","stateMutability":"payable"},{"type":"function","name":"addMember","inputs":[{"name":"newAddr","type":"address","internalType":"address"},{"name":"newPercentages","type":"uint256[]","internalType":"uint256[]"}],"outputs":[],"stateMutability":"nonpayable"},{"type":"function","name":"deposit","inputs":[],"outputs":[],"stateMutability":"payable"},{"type":"function","name":"distribute","inputs":[],"outputs":[],"stateMutability":"nonpayable"},{"type":"function","name":"getMembers","inputs":[],"outputs":[{"name":"addrs","type":"address[]","internalType":"address[]"},{"name":"percentages","type":"uint256[]","internalType":"uint256[]"}],"stateMutability":"view"},{"type":"function","name":"members","inputs":[{"name":"","type":"uint256","internalType":"uint256"}],"outputs":[{"name":"addr","type":"address","internalType":"address"},{"name":"percentage","type":"uint256","internalType":"uint256"}],"stateMutability":"view"},{"type":"function","name":"owner","inputs":[],"outputs":[{"name":"","type":"address","internalType":"address"}],"stateMutability":"view"},{"type":"event","name":"Deposited","inputs":[{"name":"sender","type":"address","indexed":true,"internalType":"address"},{"name":"amount","type":"uint256","indexed":false,"internalType":"uint256"}],"anonymous":false},{"type":"event","name":"Distributed","inputs":[{"name":"totalAmount","type":"uint256","indexed":false,"internalType":"uint256"}],"anonymous":false},{"type":"event","name":"MemberAdded","inputs":[{"name":"addr","type":"address","indexed":true,"internalType":"address"},{"name":"percentage","type":"uint256","indexed":false,"internalType":"uint256"}],"anonymous":false},{"type":"error","name":"ArrayLengthMismatch","inputs":[]},{"type":"error","name":"DuplicateAddress","inputs":[{"name":"addr","type":"address","internalType":"address"}]},{"type":"error","name":"EmptyMembers","inputs":[]},{"type":"error","name":"NoFundsToDistribute","inputs":[]},{"type":"error","name":"NotOwner","inputs":[]},{"type":"error","name":"PercentagesMustSum100","inputs":[]},{"type":"error","name":"Reentrant","inputs":[]},{"type":"error","name":"TransferFailed","inputs":[{"name":"recipient","type":"address","internalType":"address"}]},{"type":"error","name":"ZeroAddress","inputs":[]},{"type":"error","name":"ZeroPercentage","inputs":[]}],"bytecode":{"object":"0x608060405234801562000010575f80fd5b50604051620018623803806200186283398181016040528101906200003691906200072e565b5f82510362000071576040517f0e3e4fbd00000000000000000000000000000000000000000000000000000000815260040160405180910390fd5b8051825114620000ad576040517fa24a13a600000000000000000000000000000000000000000000000000000000815260040160405180910390fd5b5f805f90505b8351811015620003b8575f73ffffffffffffffffffffffffffffffffffffffff16848281518110620000ea57620000e9620007b1565b5b602002602001015173ffffffffffffffffffffffffffffffffffffffff160362000140576040517fd92e233d00000000000000000000000000000000000000000000000000000000815260040160405180910390fd5b5f838281518110620001575762000156620007b1565b5b60200260200101510362000197576040517fb5646fa500000000000000000000000000000000000000000000000000000000815260040160405180910390fd5b5f5b81811015620002a057848281518110620001b857620001b7620007b1565b5b602002602001015173ffffffffffffffffffffffffffffffffffffffff165f8281548110620001ec57620001eb620007b1565b5b905f5260205f2090600202015f015f9054906101000a900473ffffffffffffffffffffffffffffffffffffffff1673ffffffffffffffffffffffffffffffffffffffff160362000292578482815181106200024c576200024b620007b1565b5b60200260200101516040517f9f2277f3000000000000000000000000000000000000000000000000000000008152600401620002899190620007ef565b60405180910390fd5b808060010191505062000199565b505f6040518060400160405280868481518110620002c357620002c2620007b1565b5b602002602001015173ffffffffffffffffffffffffffffffffffffffff168152602001858481518110620002fc57620002fb620007b1565b5b6020026020010151815250908060018154018082558091505060019003905f5260205f2090600202015f909190919091505f820151815f015f6101000a81548173ffffffffffffffffffffffffffffffffffffffff021916908373ffffffffffffffffffffffffffffffffffffffff160217905550602082015181600101555050828181518110620003935762000392620007b1565b5b602002602001015182620003a8919062000837565b91508080600101915050620000b3565b5060648114620003f4576040517fa84f246700000000000000000000000000000000000000000000000000000000815260040160405180910390fd5b3360015f6101000a81548173ffffffffffffffffffffffffffffffffffffffff021916908373ffffffffffffffffffffffffffffffffffffffff160217905550600160028190555050505062000871565b5f604051905090565b5f80fd5b5f80fd5b5f80fd5b5f601f19601f8301169050919050565b7f4e487b71000000000000000000000000000000000000000000000000000000005f52604160045260245ffd5b620004a2826200045a565b810181811067ffffffffffffffff82111715620004c457620004c36200046a565b5b80604052505050565b5f620004d862000445565b9050620004e6828262000497565b919050565b5f67ffffffffffffffff8211156200050857620005076200046a565b5b602082029050602081019050919050565b5f80fd5b5f73ffffffffffffffffffffffffffffffffffffffff82169050919050565b5f62000548826200051d565b9050919050565b6200055a816200053c565b811462000565575f80fd5b50565b5f8151905062000578816200054f565b92915050565b5f620005946200058e84620004eb565b620004cd565b90508083825260208201905060208402830185811115620005ba57620005b962000519565b5b835b81811015620005e75780620005d2888262000568565b845260208401935050602081019050620005bc565b5050509392505050565b5f82601f83011262000608576200060762000456565b5b81516200061a8482602086016200057e565b91505092915050565b5f67ffffffffffffffff82111562000640576200063f6200046a565b5b602082029050602081019050919050565b5f819050919050565b620006658162000651565b811462000670575f80fd5b50565b5f8151905062000683816200065a565b92915050565b5f6200069f620006998462000623565b620004cd565b90508083825260208201905060208402830185811115620006c557620006c462000519565b5b835b81811015620006f25780620006dd888262000673565b845260208401935050602081019050620006c7565b5050509392505050565b5f82601f83011262000713576200071262000456565b5b81516200072584826020860162000689565b91505092915050565b5f80604083850312156200074757620007466200044e565b5b5f83015167ffffffffffffffff81111562000767576200076662000452565b5b6200077585828601620005f1565b925050602083015167ffffffffffffffff81111562000799576200079862000452565b5b620007a785828601620006fc565b9150509250929050565b7f4e487b71000000000000000000000000000000000000000000000000000000005f52603260045260245ffd5b620007e9816200053c565b82525050565b5f602082019050620008045f830184620007de565b92915050565b7f4e487b71000000000000000000000000000000000000000000000000000000005f52601160045260245ffd5b5f620008438262000651565b9150620008508362000651565b92508282019050808211156200086b576200086a6200080a565b5b92915050565b610fe3806200087f5f395ff3fe608060405260043610610058575f3560e01c80635daf08ca146100b15780638da5cb5b146100ee5780639eab525314610118578063d0e30db014610143578063e2315a291461014d578063e4fc6b6d14610175576100ad565b366100ad573373ffffffffffffffffffffffffffffffffffffffff167f2da466a7b24304f47e87fa2e1e5a81b9831ce54fec19055ce277ca2f39ba42c4346040516100a39190610a94565b60405180910390a2005b5f80fd5b3480156100bc575f80fd5b506100d760048036038101906100d29190610adf565b61018b565b6040516100e5929190610b49565b60405180910390f35b3480156100f9575f80fd5b506101026101d8565b60405161010f9190610b70565b60405180910390f35b348015610123575f80fd5b5061012c6101fd565b60405161013a929190610cf7565b60405180910390f35b61014b61038b565b005b348015610158575f80fd5b50610173600480360381019061016e9190610db7565b6103db565b005b348015610180575f80fd5b50610189610831565b005b5f8181548110610199575f80fd5b905f5260205f2090600202015f91509050805f015f9054906101000a900473ffffffffffffffffffffffffffffffffffffffff16908060010154905082565b60015f9054906101000a900473ffffffffffffffffffffffffffffffffffffffff1681565b6060805f808054905090508067ffffffffffffffff81111561022257610221610e14565b5b6040519080825280602002602001820160405280156102505781602001602082028036833780820191505090505b5092508067ffffffffffffffff81111561026d5761026c610e14565b5b60405190808252806020026020018201604052801561029b5781602001602082028036833780820191505090505b5091505f5b81811015610385575f81815481106102bb576102ba610e41565b5b905f5260205f2090600202015f015f9054906101000a900473ffffffffffffffffffffffffffffffffffffffff168482815181106102fc576102fb610e41565b5b602002602001019073ffffffffffffffffffffffffffffffffffffffff16908173ffffffffffffffffffffffffffffffffffffffff16815250505f818154811061034957610348610e41565b5b905f5260205f2090600202016001015483828151811061036c5761036b610e41565b5b60200260200101818152505080806001019150506102a0565b50509091565b3373ffffffffffffffffffffffffffffffffffffffff167f2da466a7b24304f47e87fa2e1e5a81b9831ce54fec19055ce277ca2f39ba42c4346040516103d19190610a94565b60405180910390a2565b60015f9054906101000a900473ffffffffffffffffffffffffffffffffffffffff1673ffffffffffffffffffffffffffffffffffffffff163373ffffffffffffffffffffffffffffffffffffffff1614610461576040517f30cd747100000000000000000000000000000000000000000000000000000000815260040160405180910390fd5b5f73ffffffffffffffffffffffffffffffffffffffff168373ffffffffffffffffffffffffffffffffffffffff16036104c6576040517fd92e233d00000000000000000000000000000000000000000000000000000000815260040160405180910390fd5b5f808054905090506001816104db9190610e9b565b8383905014610516576040517fa24a13a600000000000000000000000000000000000000000000000000000000815260040160405180910390fd5b5f5b818110156105dd578473ffffffffffffffffffffffffffffffffffffffff165f828154811061054a57610549610e41565b5b905f5260205f2090600202015f015f9054906101000a900473ffffffffffffffffffffffffffffffffffffffff1673ffffffffffffffffffffffffffffffffffffffff16036105d057846040517f9f2277f30000000000000000000000000000000000000000000000000000000081526004016105c79190610b70565b60405180910390fd5b8080600101915050610518565b505f805f90505b84849050811015610675575f85858381811061060357610602610e41565b5b9050602002013503610641576040517fb5646fa500000000000000000000000000000000000000000000000000000000815260040160405180910390fd5b84848281811061065457610653610e41565b5b90506020020135826106669190610e9b565b915080806001019150506105e4565b50606481146106b0576040517fa84f246700000000000000000000000000000000000000000000000000000000815260040160405180910390fd5b5f5b82811015610707578484828181106106cd576106cc610e41565b5b905060200201355f82815481106106e7576106e6610e41565b5b905f5260205f2090600202016001018190555080806001019150506106b2565b505f60405180604001604052808773ffffffffffffffffffffffffffffffffffffffff16815260200186868681811061074357610742610e41565b5b90506020020135815250908060018154018082558091505060019003905f5260205f2090600202015f909190919091505f820151815f015f6101000a81548173ffffffffffffffffffffffffffffffffffffffff021916908373ffffffffffffffffffffffffffffffffffffffff1602179055506020820151816001015550508473ffffffffffffffffffffffffffffffffffffffff167fede8eed4383e9241982619b94dd83e488b274cced0fd07b8c0092a393defd52f85858581811061080e5761080d610e41565b5b905060200201356040516108229190610a94565b60405180910390a25050505050565b600280540361086c576040517fed3ba6a600000000000000000000000000000000000000000000000000000000815260040160405180910390fd5b600280819055505f4790505f81036108b0576040517f63d664bc00000000000000000000000000000000000000000000000000000000815260040160405180910390fd5b5f808054905090505f5b81811015610a38575f60645f83815481106108d8576108d7610e41565b5b905f5260205f20906002020160010154856108f39190610ece565b6108fd9190610f3c565b90505f80838154811061091357610912610e41565b5b905f5260205f2090600202015f015f9054906101000a900473ffffffffffffffffffffffffffffffffffffffff1673ffffffffffffffffffffffffffffffffffffffff168260405161096490610f99565b5f6040518083038185875af1925050503d805f811461099e576040519150601f19603f3d011682016040523d82523d5f602084013e6109a3565b606091505b5050905080610a29575f83815481106109bf576109be610e41565b5b905f5260205f2090600202015f015f9054906101000a900473ffffffffffffffffffffffffffffffffffffffff166040517f39f1c8d9000000000000000000000000000000000000000000000000000000008152600401610a209190610b70565b60405180910390fd5b505080806001019150506108ba565b507fddc9c30275a04c48091f24199f9c405765de34d979d6847f5b9798a57232d2e582604051610a689190610a94565b60405180910390a150506001600281905550565b5f819050919050565b610a8e81610a7c565b82525050565b5f602082019050610aa75f830184610a85565b92915050565b5f80fd5b5f80fd5b610abe81610a7c565b8114610ac8575f80fd5b50565b5f81359050610ad981610ab5565b92915050565b5f60208284031215610af457610af3610aad565b5b5f610b0184828501610acb565b91505092915050565b5f73ffffffffffffffffffffffffffffffffffffffff82169050919050565b5f610b3382610b0a565b9050919050565b610b4381610b29565b82525050565b5f604082019050610b5c5f830185610b3a565b610b696020830184610a85565b9392505050565b5f602082019050610b835f830184610b3a565b92915050565b5f81519050919050565b5f82825260208201905092915050565b5f819050602082019050919050565b610bbb81610b29565b82525050565b5f610bcc8383610bb2565b60208301905092915050565b5f602082019050919050565b5f610bee82610b89565b610bf88185610b93565b9350610c0383610ba3565b805f5b83811015610c33578151610c1a8882610bc1565b9750610c2583610bd8565b925050600181019050610c06565b5085935050505092915050565b5f81519050919050565b5f82825260208201905092915050565b5f819050602082019050919050565b610c7281610a7c565b82525050565b5f610c838383610c69565b60208301905092915050565b5f602082019050919050565b5f610ca582610c40565b610caf8185610c4a565b9350610cba83610c5a565b805f5b83811015610cea578151610cd18882610c78565b9750610cdc83610c8f565b925050600181019050610cbd565b5085935050505092915050565b5f6040820190508181035f830152610d0f8185610be4565b90508181036020830152610d238184610c9b565b90509392505050565b610d3581610b29565b8114610d3f575f80fd5b50565b5f81359050610d5081610d2c565b92915050565b5f80fd5b5f80fd5b5f80fd5b5f8083601f840112610d7757610d76610d56565b5b8235905067ffffffffffffffff811115610d9457610d93610d5a565b5b602083019150836020820283011115610db057610daf610d5e565b5b9250929050565b5f805f60408486031215610dce57610dcd610aad565b5b5f610ddb86828701610d42565b935050602084013567ffffffffffffffff811115610dfc57610dfb610ab1565b5b610e0886828701610d62565b92509250509250925092565b7f4e487b71000000000000000000000000000000000000000000000000000000005f52604160045260245ffd5b7f4e487b71000000000000000000000000000000000000000000000000000000005f52603260045260245ffd5b7f4e487b71000000000000000000000000000000000000000000000000000000005f52601160045260245ffd5b5f610ea582610a7c565b9150610eb083610a7c565b9250828201905080821115610ec857610ec7610e6e565b5b92915050565b5f610ed882610a7c565b9150610ee383610a7c565b9250828202610ef181610a7c565b91508282048414831517610f0857610f07610e6e565b5b5092915050565b7f4e487b71000000000000000000000000000000000000000000000000000000005f52601260045260245ffd5b5f610f4682610a7c565b9150610f5183610a7c565b925082610f6157610f60610f0f565b5b828204905092915050565b5f81905092915050565b50565b5f610f845f83610f6c565b9150610f8f82610f76565b5f82019050919050565b5f610fa382610f79565b915081905091905056fea2646970667358221220da97ecdf7049d76f48d47e709b3fe640e13bac6037f1134b6d986ec622c3cb8e64736f6c63430008180033","linkReferences":{}},"methodIdentifiers":{"addMember(address,uint256[])":"e2315a29","deposit()":"d0e30db0","distribute()":"e4fc6b6d","getMembers()":"9eab5253","members(uint256)":"5daf08ca","owner()":"8da5cb5b"},"id":20}